{
    "_format": "hh-sol-artifact-1",
    "contractName": "ATokenMock",
    "sourceName": "contracts/ATokenMock.sol",
    "abi": [
        {
            "inputs": [
                {
                    "internalType": "address",
                    "name": "legacyToken_",
                    "type": "address"
                }
            ],
            "stateMutability": "nonpayable",
            "type": "constructor"
        },
        {
            "anonymous": false,
            "inputs": [
                {
                    "indexed": true,
                    "internalType": "address",
                    "name": "owner",
                    "type": "address"
                },
                {
                    "indexed": true,
                    "internalType": "address",
                    "name": "spender",
                    "type": "address"
                },
                {
                    "indexed": false,
                    "internalType": "uint256",
                    "name": "value",
                    "type": "uint256"
                }
            ],
            "name": "Approval",
            "type": "event"
        },
        {
            "anonymous": false,
            "inputs": [
                {
                    "indexed": false,
                    "internalType": "uint8",
                    "name": "version",
                    "type": "uint8"
                }
            ],
            "name": "Initialized",
            "type": "event"
        },
        {
            "anonymous": false,
            "inputs": [
                {
                    "indexed": true,
                    "internalType": "address",
                    "name": "from",
                    "type": "address"
                },
                {
                    "indexed": true,
                    "internalType": "address",
                    "name": "to",
                    "type": "address"
                },
                {
                    "indexed": false,
                    "internalType": "uint256",
                    "name": "value",
                    "type": "uint256"
                }
            ],
            "name": "Transfer",
            "type": "event"
        },
        {
            "inputs": [],
            "name": "allowMigration",
            "outputs": [],
            "stateMutability": "nonpayable",
            "type": "function"
        },
        {
            "inputs": [
                {
                    "internalType": "address",
                    "name": "owner",
                    "type": "address"
                },
                {
                    "internalType": "address",
                    "name": "spender",
                    "type": "address"
                }
            ],
            "name": "allowance",
            "outputs": [
                {
                    "internalType": "uint256",
                    "name": "",
                    "type": "uint256"
                }
            ],
            "stateMutability": "view",
            "type": "function"
        },
        {
            "inputs": [
                {
                    "internalType": "address",
                    "name": "spender",
                    "type": "address"
                },
                {
                    "internalType": "uint256",
                    "name": "amount",
                    "type": "uint256"
                }
            ],
            "name": "approve",
            "outputs": [
                {
                    "internalType": "bool",
                    "name": "",
                    "type": "bool"
                }
            ],
            "stateMutability": "nonpayable",
            "type": "function"
        },
        {
            "inputs": [
                {
                    "internalType": "address",
                    "name": "account",
                    "type": "address"
                }
            ],
            "name": "balanceOf",
            "outputs": [
                {
                    "internalType": "uint256",
                    "name": "",
                    "type": "uint256"
                }
            ],
            "stateMutability": "view",
            "type": "function"
        },
        {
            "inputs": [
                {
                    "internalType": "uint256",
                    "name": "amount",
                    "type": "uint256"
                }
            ],
            "name": "convert",
            "outputs": [
                {
                    "internalType": "uint256",
                    "name": "",
                    "type": "uint256"
                }
            ],
            "stateMutability": "view",
            "type": "function"
        },
        {
            "inputs": [],
            "name": "decimals",
            "outputs": [
                {
                    "internalType": "uint8",
                    "name": "",
                    "type": "uint8"
                }
            ],
            "stateMutability": "view",
            "type": "function"
        },
        {
            "inputs": [
                {
                    "internalType": "address",
                    "name": "spender",
                    "type": "address"
                },
                {
                    "internalType": "uint256",
                    "name": "subtractedValue",
                    "type": "uint256"
                }
            ],
            "name": "decreaseAllowance",
            "outputs": [
                {
                    "internalType": "bool",
                    "name": "",
                    "type": "bool"
                }
            ],
            "stateMutability": "nonpayable",
            "type": "function"
        },
        {
            "inputs": [
                {
                    "internalType": "address",
                    "name": "from",
                    "type": "address"
                },
                {
                    "internalType": "uint256",
                    "name": "amount",
                    "type": "uint256"
                }
            ],
            "name": "externalBurn",
            "outputs": [],
            "stateMutability": "nonpayable",
            "type": "function"
        },
        {
            "inputs": [
                {
                    "internalType": "address",
                    "name": "to",
                    "type": "address"
                },
                {
                    "internalType": "uint256",
                    "name": "amount",
                    "type": "uint256"
                }
            ],
            "name": "externalMint",
            "outputs": [],
            "stateMutability": "nonpayable",
            "type": "function"
        },
        {
            "inputs": [],
            "name": "getLegacyTokenAddress",
            "outputs": [
                {
                    "internalType": "address",
                    "name": "",
                    "type": "address"
                }
            ],
            "stateMutability": "view",
            "type": "function"
        },
        {
            "inputs": [
                {
                    "internalType": "address",
                    "name": "spender",
                    "type": "address"
                },
                {
                    "internalType": "uint256",
                    "name": "addedValue",
                    "type": "uint256"
                }
            ],
            "name": "increaseAllowance",
            "outputs": [
                {
                    "internalType": "bool",
                    "name": "",
                    "type": "bool"
                }
            ],
            "stateMutability": "nonpayable",
            "type": "function"
        },
        {
            "inputs": [],
            "name": "initialize",
            "outputs": [],
            "stateMutability": "nonpayable",
            "type": "function"
        },
        {
            "inputs": [
                {
                    "internalType": "uint256",
                    "name": "amount",
                    "type": "uint256"
                }
            ],
            "name": "migrate",
            "outputs": [],
            "stateMutability": "nonpayable",
            "type": "function"
        },
        {
            "inputs": [],
            "name": "name",
            "outputs": [
                {
                    "internalType": "string",
                    "name": "",
                    "type": "string"
                }
            ],
            "stateMutability": "view",
            "type": "function"
        },
        {
            "inputs": [],
            "name": "symbol",
            "outputs": [
                {
                    "internalType": "string",
                    "name": "",
                    "type": "string"
                }
            ],
            "stateMutability": "view",
            "type": "function"
        },
        {
            "inputs": [],
            "name": "toggleMultiplierOff",
            "outputs": [],
            "stateMutability": "nonpayable",
            "type": "function"
        },
        {
            "inputs": [],
            "name": "toggleMultiplierOn",
            "outputs": [],
            "stateMutability": "nonpayable",
            "type": "function"
        },
        {
            "inputs": [],
            "name": "totalSupply",
            "outputs": [
                {
                    "internalType": "uint256",
                    "name": "",
                    "type": "uint256"
                }
            ],
            "stateMutability": "view",
            "type": "function"
        },
        {
            "inputs": [
                {
                    "internalType": "address",
                    "name": "to",
                    "type": "address"
                },
                {
                    "internalType": "uint256",
                    "name": "amount",
                    "type": "uint256"
                }
            ],
            "name": "transfer",
            "outputs": [
                {
                    "internalType": "bool",
                    "name": "",
                    "type": "bool"
                }
            ],
            "stateMutability": "nonpayable",
            "type": "function"
        },
        {
            "inputs": [
                {
                    "internalType": "address",
                    "name": "from",
                    "type": "address"
                },
                {
                    "internalType": "address",
                    "name": "to",
                    "type": "address"
                },
                {
                    "internalType": "uint256",
                    "name": "amount",
                    "type": "uint256"
                }
            ],
            "name": "transferFrom",
            "outputs": [
                {
                    "internalType": "bool",
                    "name": "",
                    "type": "bool"
                }
            ],
            "stateMutability": "nonpayable",
            "type": "function"
        }
    ],
    "bytecode": "0x60a06040526000606560006101000a81548160ff0219169083151502179055503480156200002c57600080fd5b5060405162002321380380620023218339818101604052810190620000529190620000f7565b8073ffffffffffffffffffffffffffffffffffffffff1660808173ffffffffffffffffffffffffffffffffffffffff16815250505062000129565b600080fd5b600073ffffffffffffffffffffffffffffffffffffffff82169050919050565b6000620000bf8262000092565b9050919050565b620000d181620000b2565b8114620000dd57600080fd5b50565b600081519050620000f181620000c6565b92915050565b60006020828403121562000110576200010f6200008d565b5b60006200012084828501620000e0565b91505092915050565b6080516121d56200014c600039600081816103c7015261058701526121d56000f3fe608060405234801561001057600080fd5b506004361061012c5760003560e01c80634e377234116100ad57806399f988981161007157806399f98898146102e7578063a3908e1b14610303578063a457c2d714610333578063a9059cbb14610363578063dd62ed3e146103935761012c565b80634e377234146102695780636f6ebec81461027357806370a082311461028f5780638129fc1c146102bf57806395d89b41146102c95761012c565b8063313ce567116100f4578063313ce567146101eb57806335d69059146102095780633950935114610213578063454b0608146102435780634da9663e1461025f5761012c565b8063035c70991461013157806306fdde031461014f578063095ea7b31461016d57806318160ddd1461019d57806323b872dd146101bb575b600080fd5b6101396103c3565b60405161014691906114e2565b60405180910390f35b6101576103eb565b6040516101649190611596565b60405180910390f35b6101876004803603810190610182919061161f565b61047d565b604051610194919061167a565b60405180910390f35b6101a56104a0565b6040516101b291906116a4565b60405180910390f35b6101d560048036038101906101d091906116bf565b6104aa565b6040516101e2919061167a565b60405180910390f35b6101f36104d9565b604051610200919061172e565b60405180910390f35b6102116104e2565b005b61022d6004803603810190610228919061161f565b6104ff565b60405161023a919061167a565b60405180910390f35b61025d60048036038101906102589190611749565b610536565b005b61026761064a565b005b610271610654565b005b61028d6004803603810190610288919061161f565b61065e565b005b6102a960048036038101906102a49190611776565b61066c565b6040516102b691906116a4565b60405180910390f35b6102c76106b5565b005b6102d161085f565b6040516102de9190611596565b60405180910390f35b61030160048036038101906102fc919061161f565b6108f1565b005b61031d60048036038101906103189190611749565b6108ff565b60405161032a91906116a4565b60405180910390f35b61034d6004803603810190610348919061161f565b610911565b60405161035a919061167a565b60405180910390f35b61037d6004803603810190610378919061161f565b610988565b60405161038a919061167a565b60405180910390f35b6103ad60048036038101906103a891906117a3565b6109ab565b6040516103ba91906116a4565b60405180910390f35b60007f0000000000000000000000000000000000000000000000000000000000000000905090565b6060603680546103fa90611812565b80601f016020809104026020016040519081016040528092919081815260200182805461042690611812565b80156104735780601f1061044857610100808354040283529160200191610473565b820191906000526020600020905b81548152906001019060200180831161045657829003601f168201915b5050505050905090565b600080610488610a32565b9050610495818585610a3a565b600191505092915050565b6000603554905090565b6000806104b5610a32565b90506104c2858285610c05565b6104cd858585610c91565b60019150509392505050565b60006012905090565b6001606560006101000a81548160ff021916908315150217905550565b60008061050a610a32565b905061052b81858561051c85896109ab565b6105269190611873565b610a3a565b600191505092915050565b606560009054906101000a900460ff16610585576040517f08c379a000000000000000000000000000000000000000000000000000000000815260040161057c90611915565b60405180910390fd5b7f000000000000000000000000000000000000000000000000000000000000000073ffffffffffffffffffffffffffffffffffffffff166323b872dd3330846040518463ffffffff1660e01b81526004016105e293929190611935565b602060405180830381600087803b1580156105fc57600080fd5b505af1158015610610573d6000803e3d6000fd5b505050506040513d601f19601f820116820180604052508101906106349190611998565b506106473361064283610f15565b610f4b565b50565b6106526110ac565b565b61065c6110c9565b565b61066882826110e6565b5050565b6000603360008373ffffffffffffffffffffffffffffffffffffffff1673ffffffffffffffffffffffffffffffffffffffff168152602001908152602001600020549050919050565b60008060019054906101000a900460ff161590508080156106e65750600160008054906101000a900460ff1660ff16105b8061071357506106f5306112bf565b1580156107125750600160008054906101000a900460ff1660ff16145b5b610752576040517f08c379a000000000000000000000000000000000000000000000000000000000815260040161074990611a37565b60405180910390fd5b60016000806101000a81548160ff021916908360ff160217905550801561078f576001600060016101000a81548160ff0219169083151502179055505b6108036040518060400160405280600681526020017f41546f6b656e00000000000000000000000000000000000000000000000000008152506040518060400160405280600381526020017f414c4300000000000000000000000000000000000000000000000000000000008152506112e2565b801561085c5760008060016101000a81548160ff0219169083151502179055507f7f26b83ff96e1f2b6a682f133852f6798a09c465da95921460cefb384740249860016040516108539190611a9c565b60405180910390a15b50565b60606037805461086e90611812565b80601f016020809104026020016040519081016040528092919081815260200182805461089a90611812565b80156108e75780601f106108bc576101008083540402835291602001916108e7565b820191906000526020600020905b8154815290600101906020018083116108ca57829003601f168201915b5050505050905090565b6108fb8282610f4b565b5050565b600061090a82610f15565b9050919050565b60008061091c610a32565b9050600061092a82866109ab565b90508381101561096f576040517f08c379a000000000000000000000000000000000000000000000000000000000815260040161096690611b29565b60405180910390fd5b61097c8286868403610a3a565b60019250505092915050565b600080610993610a32565b90506109a0818585610c91565b600191505092915050565b6000603460008473ffffffffffffffffffffffffffffffffffffffff1673ffffffffffffffffffffffffffffffffffffffff16815260200190815260200160002060008373ffffffffffffffffffffffffffffffffffffffff1673ffffffffffffffffffffffffffffffffffffffff16815260200190815260200160002054905092915050565b600033905090565b600073ffffffffffffffffffffffffffffffffffffffff168373ffffffffffffffffffffffffffffffffffffffff161415610aaa576040517f08c379a0000000000000000000000000000000000000000000000000000000008152600401610aa190611bbb565b60405180910390fd5b600073ffffffffffffffffffffffffffffffffffffffff168273ffffffffffffffffffffffffffffffffffffffff161415610b1a576040517f08c379a0000000000000000000000000000000000000000000000000000000008152600401610b1190611c4d565b60405180910390fd5b80603460008573ffffffffffffffffffffffffffffffffffffffff1673ffffffffffffffffffffffffffffffffffffffff16815260200190815260200160002060008473ffffffffffffffffffffffffffffffffffffffff1673ffffffffffffffffffffffffffffffffffffffff168152602001908152602001600020819055508173ffffffffffffffffffffffffffffffffffffffff168373ffffffffffffffffffffffffffffffffffffffff167f8c5be1e5ebec7d5bd14f71427d1e84f3dd0314c0f7b2291e5b200ac8c7c3b92583604051610bf891906116a4565b60405180910390a3505050565b6000610c1184846109ab565b90507fffffffffffffffffffffffffffffffffffffffffffffffffffffffffffffffff8114610c8b5781811015610c7d576040517f08c379a0000000000000000000000000000000000000000000000000000000008152600401610c7490611cb9565b60405180910390fd5b610c8a8484848403610a3a565b5b50505050565b600073ffffffffffffffffffffffffffffffffffffffff168373ffffffffffffffffffffffffffffffffffffffff161415610d01576040517f08c379a0000000000000000000000000000000000000000000000000000000008152600401610cf890611d4b565b60405180910390fd5b600073ffffffffffffffffffffffffffffffffffffffff168273ffffffffffffffffffffffffffffffffffffffff161415610d71576040517f08c379a0000000000000000000000000000000000000000000000000000000008152600401610d6890611ddd565b60405180910390fd5b610d7c83838361133f565b6000603360008573ffffffffffffffffffffffffffffffffffffffff1673ffffffffffffffffffffffffffffffffffffffff16815260200190815260200160002054905081811015610e03576040517f08c379a0000000000000000000000000000000000000000000000000000000008152600401610dfa90611e6f565b60405180910390fd5b818103603360008673ffffffffffffffffffffffffffffffffffffffff1673ffffffffffffffffffffffffffffffffffffffff1681526020019081526020016000208190555081603360008573ffffffffffffffffffffffffffffffffffffffff1673ffffffffffffffffffffffffffffffffffffffff1681526020019081526020016000206000828254610e989190611873565b925050819055508273ffffffffffffffffffffffffffffffffffffffff168473ffffffffffffffffffffffffffffffffffffffff167fddf252ad1be2c89b69c2b068fc378daa952ba7f163c4a11628f55a4df523b3ef84604051610efc91906116a4565b60405180910390a3610f0f848484611344565b50505050565b6000801515606560019054906101000a900460ff1615151415610f4257610f3b82611349565b9050610f46565b8190505b919050565b600073ffffffffffffffffffffffffffffffffffffffff168273ffffffffffffffffffffffffffffffffffffffff161415610fbb576040517f08c379a0000000000000000000000000000000000000000000000000000000008152600401610fb290611edb565b60405180910390fd5b610fc76000838361133f565b8060356000828254610fd99190611873565b9250508190555080603360008473ffffffffffffffffffffffffffffffffffffffff1673ffffffffffffffffffffffffffffffffffffffff168152602001908152602001600020600082825461102f9190611873565b925050819055508173ffffffffffffffffffffffffffffffffffffffff16600073ffffffffffffffffffffffffffffffffffffffff167fddf252ad1be2c89b69c2b068fc378daa952ba7f163c4a11628f55a4df523b3ef8360405161109491906116a4565b60405180910390a36110a860008383611344565b5050565b6000606560016101000a81548160ff021916908315150217905550565b6001606560016101000a81548160ff021916908315150217905550565b600073ffffffffffffffffffffffffffffffffffffffff168273ffffffffffffffffffffffffffffffffffffffff161415611156576040517f08c379a000000000000000000000000000000000000000000000000000000000815260040161114d90611f6d565b60405180910390fd5b6111628260008361133f565b6000603360008473ffffffffffffffffffffffffffffffffffffffff1673ffffffffffffffffffffffffffffffffffffffff168152602001908152602001600020549050818110156111e9576040517f08c379a00000000000000000000000000000000000000000000000000000000081526004016111e090611fff565b60405180910390fd5b818103603360008573ffffffffffffffffffffffffffffffffffffffff1673ffffffffffffffffffffffffffffffffffffffff168152602001908152602001600020819055508160356000828254611241919061201f565b92505081905550600073ffffffffffffffffffffffffffffffffffffffff168373ffffffffffffffffffffffffffffffffffffffff167fddf252ad1be2c89b69c2b068fc378daa952ba7f163c4a11628f55a4df523b3ef846040516112a691906116a4565b60405180910390a36112ba83600084611344565b505050565b6000808273ffffffffffffffffffffffffffffffffffffffff163b119050919050565b600060019054906101000a900460ff16611331576040517f08c379a0000000000000000000000000000000000000000000000000000000008152600401611328906120c5565b60405180910390fd5b61133b828261137d565b5050565b505050565b505050565b600069152d02c7e14af68000006920f0aefe091f468e38e48361136c91906120e5565b611376919061216e565b9050919050565b600060019054906101000a900460ff166113cc576040517f08c379a00000000000000000000000000000000000000000000000000000000081526004016113c3906120c5565b60405180910390fd5b81603690805190602001906113e29291906113fe565b5080603790805190602001906113f99291906113fe565b505050565b82805461140a90611812565b90600052602060002090601f01602090048101928261142c5760008555611473565b82601f1061144557805160ff1916838001178555611473565b82800160010185558215611473579182015b82811115611472578251825591602001919060010190611457565b5b5090506114809190611484565b5090565b5b8082111561149d576000816000905550600101611485565b5090565b600073ffffffffffffffffffffffffffffffffffffffff82169050919050565b60006114cc826114a1565b9050919050565b6114dc816114c1565b82525050565b60006020820190506114f760008301846114d3565b92915050565b600081519050919050565b600082825260208201905092915050565b60005b8381101561153757808201518184015260208101905061151c565b83811115611546576000848401525b50505050565b6000601f19601f8301169050919050565b6000611568826114fd565b6115728185611508565b9350611582818560208601611519565b61158b8161154c565b840191505092915050565b600060208201905081810360008301526115b0818461155d565b905092915050565b600080fd5b6115c6816114c1565b81146115d157600080fd5b50565b6000813590506115e3816115bd565b92915050565b6000819050919050565b6115fc816115e9565b811461160757600080fd5b50565b600081359050611619816115f3565b92915050565b60008060408385031215611636576116356115b8565b5b6000611644858286016115d4565b92505060206116558582860161160a565b9150509250929050565b60008115159050919050565b6116748161165f565b82525050565b600060208201905061168f600083018461166b565b92915050565b61169e816115e9565b82525050565b60006020820190506116b96000830184611695565b92915050565b6000806000606084860312156116d8576116d76115b8565b5b60006116e6868287016115d4565b93505060206116f7868287016115d4565b92505060406117088682870161160a565b9150509250925092565b600060ff82169050919050565b61172881611712565b82525050565b6000602082019050611743600083018461171f565b92915050565b60006020828403121561175f5761175e6115b8565b5b600061176d8482850161160a565b91505092915050565b60006020828403121561178c5761178b6115b8565b5b600061179a848285016115d4565b91505092915050565b600080604083850312156117ba576117b96115b8565b5b60006117c8858286016115d4565b92505060206117d9858286016115d4565b9150509250929050565b7f4e487b7100000000000000000000000000000000000000000000000000000000600052602260045260246000fd5b6000600282049050600182168061182a57607f821691505b6020821081141561183e5761183d6117e3565b5b50919050565b7f4e487b7100000000000000000000000000000000000000000000000000000000600052601160045260246000fd5b600061187e826115e9565b9150611889836115e9565b9250827fffffffffffffffffffffffffffffffffffffffffffffffffffffffffffffffff038211156118be576118bd611844565b5b828201905092915050565b7f4d6164546f6b656e73206d6967726174696f6e206e6f7420616c6c6f77656400600082015250565b60006118ff601f83611508565b915061190a826118c9565b602082019050919050565b6000602082019050818103600083015261192e816118f2565b9050919050565b600060608201905061194a60008301866114d3565b61195760208301856114d3565b6119646040830184611695565b949350505050565b6119758161165f565b811461198057600080fd5b50565b6000815190506119928161196c565b92915050565b6000602082840312156119ae576119ad6115b8565b5b60006119bc84828501611983565b91505092915050565b7f496e697469616c697a61626c653a20636f6e747261637420697320616c72656160008201527f647920696e697469616c697a6564000000000000000000000000000000000000602082015250565b6000611a21602e83611508565b9150611a2c826119c5565b604082019050919050565b60006020820190508181036000830152611a5081611a14565b9050919050565b6000819050919050565b6000819050919050565b6000611a86611a81611a7c84611a57565b611a61565b611712565b9050919050565b611a9681611a6b565b82525050565b6000602082019050611ab16000830184611a8d565b92915050565b7f45524332303a2064656372656173656420616c6c6f77616e63652062656c6f7760008201527f207a65726f000000000000000000000000000000000000000000000000000000602082015250565b6000611b13602583611508565b9150611b1e82611ab7565b604082019050919050565b60006020820190508181036000830152611b4281611b06565b9050919050565b7f45524332303a20617070726f76652066726f6d20746865207a65726f2061646460008201527f7265737300000000000000000000000000000000000000000000000000000000602082015250565b6000611ba5602483611508565b9150611bb082611b49565b604082019050919050565b60006020820190508181036000830152611bd481611b98565b9050919050565b7f45524332303a20617070726f766520746f20746865207a65726f20616464726560008201527f7373000000000000000000000000000000000000000000000000000000000000602082015250565b6000611c37602283611508565b9150611c4282611bdb565b604082019050919050565b60006020820190508181036000830152611c6681611c2a565b9050919050565b7f45524332303a20696e73756666696369656e7420616c6c6f77616e6365000000600082015250565b6000611ca3601d83611508565b9150611cae82611c6d565b602082019050919050565b60006020820190508181036000830152611cd281611c96565b9050919050565b7f45524332303a207472616e736665722066726f6d20746865207a65726f20616460008201527f6472657373000000000000000000000000000000000000000000000000000000602082015250565b6000611d35602583611508565b9150611d4082611cd9565b604082019050919050565b60006020820190508181036000830152611d6481611d28565b9050919050565b7f45524332303a207472616e7366657220746f20746865207a65726f206164647260008201527f6573730000000000000000000000000000000000000000000000000000000000602082015250565b6000611dc7602383611508565b9150611dd282611d6b565b604082019050919050565b60006020820190508181036000830152611df681611dba565b9050919050565b7f45524332303a207472616e7366657220616d6f756e742065786365656473206260008201527f616c616e63650000000000000000000000000000000000000000000000000000602082015250565b6000611e59602683611508565b9150611e6482611dfd565b604082019050919050565b60006020820190508181036000830152611e8881611e4c565b9050919050565b7f45524332303a206d696e7420746f20746865207a65726f206164647265737300600082015250565b6000611ec5601f83611508565b9150611ed082611e8f565b602082019050919050565b60006020820190508181036000830152611ef481611eb8565b9050919050565b7f45524332303a206275726e2066726f6d20746865207a65726f2061646472657360008201527f7300000000000000000000000000000000000000000000000000000000000000602082015250565b6000611f57602183611508565b9150611f6282611efb565b604082019050919050565b60006020820190508181036000830152611f8681611f4a565b9050919050565b7f45524332303a206275726e20616d6f756e7420657863656564732062616c616e60008201527f6365000000000000000000000000000000000000000000000000000000000000602082015250565b6000611fe9602283611508565b9150611ff482611f8d565b604082019050919050565b6000602082019050818103600083015261201881611fdc565b9050919050565b600061202a826115e9565b9150612035836115e9565b92508282101561204857612047611844565b5b828203905092915050565b7f496e697469616c697a61626c653a20636f6e7472616374206973206e6f74206960008201527f6e697469616c697a696e67000000000000000000000000000000000000000000602082015250565b60006120af602b83611508565b91506120ba82612053565b604082019050919050565b600060208201905081810360008301526120de816120a2565b9050919050565b60006120f0826115e9565b91506120fb836115e9565b9250817fffffffffffffffffffffffffffffffffffffffffffffffffffffffffffffffff048311821515161561213457612133611844565b5b828202905092915050565b7f4e487b7100000000000000000000000000000000000000000000000000000000600052601260045260246000fd5b6000612179826115e9565b9150612184836115e9565b9250826121945761219361213f565b5b82820490509291505056fea2646970667358221220ed8a393320f0dd51e4cb2bd75de62be03ae190de31f7427fbae4907a3375fc1964736f6c63430008090033",
    "linkReferences": {},
    "deployedLinkReferences": {}
}