{
    "_format": "hh-sol-artifact-1",
    "contractName": "ATokenMock",
    "sourceName": "contracts/ATokenMock.sol",
    "abi": [
        {
            "inputs": [
                {
                    "internalType": "address",
                    "name": "legacyToken_",
                    "type": "address"
                }
            ],
            "stateMutability": "nonpayable",
            "type": "constructor"
        },
        {
            "anonymous": false,
            "inputs": [
                {
                    "indexed": true,
                    "internalType": "address",
                    "name": "owner",
                    "type": "address"
                },
                {
                    "indexed": true,
                    "internalType": "address",
                    "name": "spender",
                    "type": "address"
                },
                {
                    "indexed": false,
                    "internalType": "uint256",
                    "name": "value",
                    "type": "uint256"
                }
            ],
            "name": "Approval",
            "type": "event"
        },
        {
            "anonymous": false,
            "inputs": [
                {
                    "indexed": false,
                    "internalType": "uint8",
                    "name": "version",
                    "type": "uint8"
                }
            ],
            "name": "Initialized",
            "type": "event"
        },
        {
            "anonymous": false,
            "inputs": [
                {
                    "indexed": true,
                    "internalType": "address",
                    "name": "from",
                    "type": "address"
                },
                {
                    "indexed": true,
                    "internalType": "address",
                    "name": "to",
                    "type": "address"
                },
                {
                    "indexed": false,
                    "internalType": "uint256",
                    "name": "value",
                    "type": "uint256"
                }
            ],
            "name": "Transfer",
            "type": "event"
        },
        {
            "inputs": [],
            "name": "allowMigration",
            "outputs": [],
            "stateMutability": "nonpayable",
            "type": "function"
        },
        {
            "inputs": [
                {
                    "internalType": "address",
                    "name": "owner",
                    "type": "address"
                },
                {
                    "internalType": "address",
                    "name": "spender",
                    "type": "address"
                }
            ],
            "name": "allowance",
            "outputs": [
                {
                    "internalType": "uint256",
                    "name": "",
                    "type": "uint256"
                }
            ],
            "stateMutability": "view",
            "type": "function"
        },
        {
            "inputs": [
                {
                    "internalType": "address",
                    "name": "spender",
                    "type": "address"
                },
                {
                    "internalType": "uint256",
                    "name": "amount",
                    "type": "uint256"
                }
            ],
            "name": "approve",
            "outputs": [
                {
                    "internalType": "bool",
                    "name": "",
                    "type": "bool"
                }
            ],
            "stateMutability": "nonpayable",
            "type": "function"
        },
        {
            "inputs": [
                {
                    "internalType": "address",
                    "name": "account",
                    "type": "address"
                }
            ],
            "name": "balanceOf",
            "outputs": [
                {
                    "internalType": "uint256",
                    "name": "",
                    "type": "uint256"
                }
            ],
            "stateMutability": "view",
            "type": "function"
        },
        {
            "inputs": [],
            "name": "decimals",
            "outputs": [
                {
                    "internalType": "uint8",
                    "name": "",
                    "type": "uint8"
                }
            ],
            "stateMutability": "view",
            "type": "function"
        },
        {
            "inputs": [
                {
                    "internalType": "address",
                    "name": "spender",
                    "type": "address"
                },
                {
                    "internalType": "uint256",
                    "name": "subtractedValue",
                    "type": "uint256"
                }
            ],
            "name": "decreaseAllowance",
            "outputs": [
                {
                    "internalType": "bool",
                    "name": "",
                    "type": "bool"
                }
            ],
            "stateMutability": "nonpayable",
            "type": "function"
        },
        {
            "inputs": [
                {
                    "internalType": "address",
                    "name": "from",
                    "type": "address"
                },
                {
                    "internalType": "uint256",
                    "name": "amount",
                    "type": "uint256"
                }
            ],
            "name": "externalBurn",
            "outputs": [],
            "stateMutability": "nonpayable",
            "type": "function"
        },
        {
            "inputs": [
                {
                    "internalType": "address",
                    "name": "to",
                    "type": "address"
                },
                {
                    "internalType": "uint256",
                    "name": "amount",
                    "type": "uint256"
                }
            ],
            "name": "externalMint",
            "outputs": [],
            "stateMutability": "nonpayable",
            "type": "function"
        },
        {
            "inputs": [],
            "name": "getLegacyTokenAddress",
            "outputs": [
                {
                    "internalType": "address",
                    "name": "",
                    "type": "address"
                }
            ],
            "stateMutability": "view",
            "type": "function"
        },
        {
            "inputs": [
                {
                    "internalType": "address",
                    "name": "spender",
                    "type": "address"
                },
                {
                    "internalType": "uint256",
                    "name": "addedValue",
                    "type": "uint256"
                }
            ],
            "name": "increaseAllowance",
            "outputs": [
                {
                    "internalType": "bool",
                    "name": "",
                    "type": "bool"
                }
            ],
            "stateMutability": "nonpayable",
            "type": "function"
        },
        {
            "inputs": [],
            "name": "initialize",
            "outputs": [],
            "stateMutability": "nonpayable",
            "type": "function"
        },
        {
            "inputs": [
                {
                    "internalType": "uint256",
                    "name": "amount",
                    "type": "uint256"
                }
            ],
            "name": "migrate",
            "outputs": [],
            "stateMutability": "nonpayable",
            "type": "function"
        },
        {
            "inputs": [],
            "name": "name",
            "outputs": [
                {
                    "internalType": "string",
                    "name": "",
                    "type": "string"
                }
            ],
            "stateMutability": "view",
            "type": "function"
        },
        {
            "inputs": [],
            "name": "symbol",
            "outputs": [
                {
                    "internalType": "string",
                    "name": "",
                    "type": "string"
                }
            ],
            "stateMutability": "view",
            "type": "function"
        },
        {
            "inputs": [],
            "name": "totalSupply",
            "outputs": [
                {
                    "internalType": "uint256",
                    "name": "",
                    "type": "uint256"
                }
            ],
            "stateMutability": "view",
            "type": "function"
        },
        {
            "inputs": [
                {
                    "internalType": "address",
                    "name": "to",
                    "type": "address"
                },
                {
                    "internalType": "uint256",
                    "name": "amount",
                    "type": "uint256"
                }
            ],
            "name": "transfer",
            "outputs": [
                {
                    "internalType": "bool",
                    "name": "",
                    "type": "bool"
                }
            ],
            "stateMutability": "nonpayable",
            "type": "function"
        },
        {
            "inputs": [
                {
                    "internalType": "address",
                    "name": "from",
                    "type": "address"
                },
                {
                    "internalType": "address",
                    "name": "to",
                    "type": "address"
                },
                {
                    "internalType": "uint256",
                    "name": "amount",
                    "type": "uint256"
                }
            ],
            "name": "transferFrom",
            "outputs": [
                {
                    "internalType": "bool",
                    "name": "",
                    "type": "bool"
                }
            ],
            "stateMutability": "nonpayable",
            "type": "function"
        }
    ],
    "bytecode": "0x60a06040526001606560006101000a81548160ff0219169083151502179055503480156200002c57600080fd5b5060405162002130380380620021308339818101604052810190620000529190620000f7565b8073ffffffffffffffffffffffffffffffffffffffff1660808173ffffffffffffffffffffffffffffffffffffffff16815250505062000129565b600080fd5b600073ffffffffffffffffffffffffffffffffffffffff82169050919050565b6000620000bf8262000092565b9050919050565b620000d181620000b2565b8114620000dd57600080fd5b50565b600081519050620000f181620000c6565b92915050565b60006020828403121562000110576200010f6200008d565b5b60006200012084828501620000e0565b91505092915050565b608051611fe46200014c6000396000818161036201526105220152611fe46000f3fe608060405234801561001057600080fd5b506004361061010b5760003560e01c8063454b0608116100a257806395d89b411161007157806395d89b411461029457806399f98898146102b2578063a457c2d7146102ce578063a9059cbb146102fe578063dd62ed3e1461032e5761010b565b8063454b0608146102225780636f6ebec81461023e57806370a082311461025a5780638129fc1c1461028a5761010b565b806323b872dd116100de57806323b872dd1461019a578063313ce567146101ca57806335d69059146101e857806339509351146101f25761010b565b8063035c70991461011057806306fdde031461012e578063095ea7b31461014c57806318160ddd1461017c575b600080fd5b61011861035e565b60405161012591906113ab565b60405180910390f35b610136610386565b604051610143919061145f565b60405180910390f35b610166600480360381019061016191906114e8565b610418565b6040516101739190611543565b60405180910390f35b61018461043b565b604051610191919061156d565b60405180910390f35b6101b460048036038101906101af9190611588565b610445565b6040516101c19190611543565b60405180910390f35b6101d2610474565b6040516101df91906115f7565b60405180910390f35b6101f061047d565b005b61020c600480360381019061020791906114e8565b61049a565b6040516102199190611543565b60405180910390f35b61023c60048036038101906102379190611612565b6104d1565b005b610258600480360381019061025391906114e8565b6105dd565b005b610274600480360381019061026f919061163f565b6105eb565b604051610281919061156d565b60405180910390f35b610292610634565b005b61029c6107de565b6040516102a9919061145f565b60405180910390f35b6102cc60048036038101906102c791906114e8565b610870565b005b6102e860048036038101906102e391906114e8565b61087e565b6040516102f59190611543565b60405180910390f35b610318600480360381019061031391906114e8565b6108f5565b6040516103259190611543565b60405180910390f35b6103486004803603810190610343919061166c565b610918565b604051610355919061156d565b60405180910390f35b60007f0000000000000000000000000000000000000000000000000000000000000000905090565b606060368054610395906116db565b80601f01602080910402602001604051908101604052809291908181526020018280546103c1906116db565b801561040e5780601f106103e35761010080835404028352916020019161040e565b820191906000526020600020905b8154815290600101906020018083116103f157829003601f168201915b5050505050905090565b60008061042361099f565b90506104308185856109a7565b600191505092915050565b6000603554905090565b60008061045061099f565b905061045d858285610b72565b610468858585610bfe565b60019150509392505050565b60006012905090565b6001606560006101000a81548160ff021916908315150217905550565b6000806104a561099f565b90506104c68185856104b78589610918565b6104c1919061173c565b6109a7565b600191505092915050565b606560009054906101000a900460ff16610520576040517f08c379a0000000000000000000000000000000000000000000000000000000008152600401610517906117de565b60405180910390fd5b7f000000000000000000000000000000000000000000000000000000000000000073ffffffffffffffffffffffffffffffffffffffff166323b872dd3330846040518463ffffffff1660e01b815260040161057d939291906117fe565b602060405180830381600087803b15801561059757600080fd5b505af11580156105ab573d6000803e3d6000fd5b505050506040513d601f19601f820116820180604052508101906105cf9190611861565b506105da3382610e82565b50565b6105e78282610fe3565b5050565b6000603360008373ffffffffffffffffffffffffffffffffffffffff1673ffffffffffffffffffffffffffffffffffffffff168152602001908152602001600020549050919050565b60008060019054906101000a900460ff161590508080156106655750600160008054906101000a900460ff1660ff16105b806106925750610674306111bc565b1580156106915750600160008054906101000a900460ff1660ff16145b5b6106d1576040517f08c379a00000000000000000000000000000000000000000000000000000000081526004016106c890611900565b60405180910390fd5b60016000806101000a81548160ff021916908360ff160217905550801561070e576001600060016101000a81548160ff0219169083151502179055505b6107826040518060400160405280600681526020017f41546f6b656e00000000000000000000000000000000000000000000000000008152506040518060400160405280600381526020017f414c4300000000000000000000000000000000000000000000000000000000008152506111df565b80156107db5760008060016101000a81548160ff0219169083151502179055507f7f26b83ff96e1f2b6a682f133852f6798a09c465da95921460cefb384740249860016040516107d29190611965565b60405180910390a15b50565b6060603780546107ed906116db565b80601f0160208091040260200160405190810160405280929190818152602001828054610819906116db565b80156108665780601f1061083b57610100808354040283529160200191610866565b820191906000526020600020905b81548152906001019060200180831161084957829003601f168201915b5050505050905090565b61087a8282610e82565b5050565b60008061088961099f565b905060006108978286610918565b9050838110156108dc576040517f08c379a00000000000000000000000000000000000000000000000000000000081526004016108d3906119f2565b60405180910390fd5b6108e982868684036109a7565b60019250505092915050565b60008061090061099f565b905061090d818585610bfe565b600191505092915050565b6000603460008473ffffffffffffffffffffffffffffffffffffffff1673ffffffffffffffffffffffffffffffffffffffff16815260200190815260200160002060008373ffffffffffffffffffffffffffffffffffffffff1673ffffffffffffffffffffffffffffffffffffffff16815260200190815260200160002054905092915050565b600033905090565b600073ffffffffffffffffffffffffffffffffffffffff168373ffffffffffffffffffffffffffffffffffffffff161415610a17576040517f08c379a0000000000000000000000000000000000000000000000000000000008152600401610a0e90611a84565b60405180910390fd5b600073ffffffffffffffffffffffffffffffffffffffff168273ffffffffffffffffffffffffffffffffffffffff161415610a87576040517f08c379a0000000000000000000000000000000000000000000000000000000008152600401610a7e90611b16565b60405180910390fd5b80603460008573ffffffffffffffffffffffffffffffffffffffff1673ffffffffffffffffffffffffffffffffffffffff16815260200190815260200160002060008473ffffffffffffffffffffffffffffffffffffffff1673ffffffffffffffffffffffffffffffffffffffff168152602001908152602001600020819055508173ffffffffffffffffffffffffffffffffffffffff168373ffffffffffffffffffffffffffffffffffffffff167f8c5be1e5ebec7d5bd14f71427d1e84f3dd0314c0f7b2291e5b200ac8c7c3b92583604051610b65919061156d565b60405180910390a3505050565b6000610b7e8484610918565b90507fffffffffffffffffffffffffffffffffffffffffffffffffffffffffffffffff8114610bf85781811015610bea576040517f08c379a0000000000000000000000000000000000000000000000000000000008152600401610be190611b82565b60405180910390fd5b610bf784848484036109a7565b5b50505050565b600073ffffffffffffffffffffffffffffffffffffffff168373ffffffffffffffffffffffffffffffffffffffff161415610c6e576040517f08c379a0000000000000000000000000000000000000000000000000000000008152600401610c6590611c14565b60405180910390fd5b600073ffffffffffffffffffffffffffffffffffffffff168273ffffffffffffffffffffffffffffffffffffffff161415610cde576040517f08c379a0000000000000000000000000000000000000000000000000000000008152600401610cd590611ca6565b60405180910390fd5b610ce983838361123c565b6000603360008573ffffffffffffffffffffffffffffffffffffffff1673ffffffffffffffffffffffffffffffffffffffff16815260200190815260200160002054905081811015610d70576040517f08c379a0000000000000000000000000000000000000000000000000000000008152600401610d6790611d38565b60405180910390fd5b818103603360008673ffffffffffffffffffffffffffffffffffffffff1673ffffffffffffffffffffffffffffffffffffffff1681526020019081526020016000208190555081603360008573ffffffffffffffffffffffffffffffffffffffff1673ffffffffffffffffffffffffffffffffffffffff1681526020019081526020016000206000828254610e05919061173c565b925050819055508273ffffffffffffffffffffffffffffffffffffffff168473ffffffffffffffffffffffffffffffffffffffff167fddf252ad1be2c89b69c2b068fc378daa952ba7f163c4a11628f55a4df523b3ef84604051610e69919061156d565b60405180910390a3610e7c848484611241565b50505050565b600073ffffffffffffffffffffffffffffffffffffffff168273ffffffffffffffffffffffffffffffffffffffff161415610ef2576040517f08c379a0000000000000000000000000000000000000000000000000000000008152600401610ee990611da4565b60405180910390fd5b610efe6000838361123c565b8060356000828254610f10919061173c565b9250508190555080603360008473ffffffffffffffffffffffffffffffffffffffff1673ffffffffffffffffffffffffffffffffffffffff1681526020019081526020016000206000828254610f66919061173c565b925050819055508173ffffffffffffffffffffffffffffffffffffffff16600073ffffffffffffffffffffffffffffffffffffffff167fddf252ad1be2c89b69c2b068fc378daa952ba7f163c4a11628f55a4df523b3ef83604051610fcb919061156d565b60405180910390a3610fdf60008383611241565b5050565b600073ffffffffffffffffffffffffffffffffffffffff168273ffffffffffffffffffffffffffffffffffffffff161415611053576040517f08c379a000000000000000000000000000000000000000000000000000000000815260040161104a90611e36565b60405180910390fd5b61105f8260008361123c565b6000603360008473ffffffffffffffffffffffffffffffffffffffff1673ffffffffffffffffffffffffffffffffffffffff168152602001908152602001600020549050818110156110e6576040517f08c379a00000000000000000000000000000000000000000000000000000000081526004016110dd90611ec8565b60405180910390fd5b818103603360008573ffffffffffffffffffffffffffffffffffffffff1673ffffffffffffffffffffffffffffffffffffffff16815260200190815260200160002081905550816035600082825461113e9190611ee8565b92505081905550600073ffffffffffffffffffffffffffffffffffffffff168373ffffffffffffffffffffffffffffffffffffffff167fddf252ad1be2c89b69c2b068fc378daa952ba7f163c4a11628f55a4df523b3ef846040516111a3919061156d565b60405180910390a36111b783600084611241565b505050565b6000808273ffffffffffffffffffffffffffffffffffffffff163b119050919050565b600060019054906101000a900460ff1661122e576040517f08c379a000000000000000000000000000000000000000000000000000000000815260040161122590611f8e565b60405180910390fd5b6112388282611246565b5050565b505050565b505050565b600060019054906101000a900460ff16611295576040517f08c379a000000000000000000000000000000000000000000000000000000000815260040161128c90611f8e565b60405180910390fd5b81603690805190602001906112ab9291906112c7565b5080603790805190602001906112c29291906112c7565b505050565b8280546112d3906116db565b90600052602060002090601f0160209004810192826112f5576000855561133c565b82601f1061130e57805160ff191683800117855561133c565b8280016001018555821561133c579182015b8281111561133b578251825591602001919060010190611320565b5b509050611349919061134d565b5090565b5b8082111561136657600081600090555060010161134e565b5090565b600073ffffffffffffffffffffffffffffffffffffffff82169050919050565b60006113958261136a565b9050919050565b6113a58161138a565b82525050565b60006020820190506113c0600083018461139c565b92915050565b600081519050919050565b600082825260208201905092915050565b60005b838110156114005780820151818401526020810190506113e5565b8381111561140f576000848401525b50505050565b6000601f19601f8301169050919050565b6000611431826113c6565b61143b81856113d1565b935061144b8185602086016113e2565b61145481611415565b840191505092915050565b600060208201905081810360008301526114798184611426565b905092915050565b600080fd5b61148f8161138a565b811461149a57600080fd5b50565b6000813590506114ac81611486565b92915050565b6000819050919050565b6114c5816114b2565b81146114d057600080fd5b50565b6000813590506114e2816114bc565b92915050565b600080604083850312156114ff576114fe611481565b5b600061150d8582860161149d565b925050602061151e858286016114d3565b9150509250929050565b60008115159050919050565b61153d81611528565b82525050565b60006020820190506115586000830184611534565b92915050565b611567816114b2565b82525050565b6000602082019050611582600083018461155e565b92915050565b6000806000606084860312156115a1576115a0611481565b5b60006115af8682870161149d565b93505060206115c08682870161149d565b92505060406115d1868287016114d3565b9150509250925092565b600060ff82169050919050565b6115f1816115db565b82525050565b600060208201905061160c60008301846115e8565b92915050565b60006020828403121561162857611627611481565b5b6000611636848285016114d3565b91505092915050565b60006020828403121561165557611654611481565b5b60006116638482850161149d565b91505092915050565b6000806040838503121561168357611682611481565b5b60006116918582860161149d565b92505060206116a28582860161149d565b9150509250929050565b7f4e487b7100000000000000000000000000000000000000000000000000000000600052602260045260246000fd5b600060028204905060018216806116f357607f821691505b60208210811415611707576117066116ac565b5b50919050565b7f4e487b7100000000000000000000000000000000000000000000000000000000600052601160045260246000fd5b6000611747826114b2565b9150611752836114b2565b9250827fffffffffffffffffffffffffffffffffffffffffffffffffffffffffffffffff038211156117875761178661170d565b5b828201905092915050565b7f4d6164546f6b656e73206d6967726174696f6e206e6f7420616c6c6f77656400600082015250565b60006117c8601f836113d1565b91506117d382611792565b602082019050919050565b600060208201905081810360008301526117f7816117bb565b9050919050565b6000606082019050611813600083018661139c565b611820602083018561139c565b61182d604083018461155e565b949350505050565b61183e81611528565b811461184957600080fd5b50565b60008151905061185b81611835565b92915050565b60006020828403121561187757611876611481565b5b60006118858482850161184c565b91505092915050565b7f496e697469616c697a61626c653a20636f6e747261637420697320616c72656160008201527f647920696e697469616c697a6564000000000000000000000000000000000000602082015250565b60006118ea602e836113d1565b91506118f58261188e565b604082019050919050565b60006020820190508181036000830152611919816118dd565b9050919050565b6000819050919050565b6000819050919050565b600061194f61194a61194584611920565b61192a565b6115db565b9050919050565b61195f81611934565b82525050565b600060208201905061197a6000830184611956565b92915050565b7f45524332303a2064656372656173656420616c6c6f77616e63652062656c6f7760008201527f207a65726f000000000000000000000000000000000000000000000000000000602082015250565b60006119dc6025836113d1565b91506119e782611980565b604082019050919050565b60006020820190508181036000830152611a0b816119cf565b9050919050565b7f45524332303a20617070726f76652066726f6d20746865207a65726f2061646460008201527f7265737300000000000000000000000000000000000000000000000000000000602082015250565b6000611a6e6024836113d1565b9150611a7982611a12565b604082019050919050565b60006020820190508181036000830152611a9d81611a61565b9050919050565b7f45524332303a20617070726f766520746f20746865207a65726f20616464726560008201527f7373000000000000000000000000000000000000000000000000000000000000602082015250565b6000611b006022836113d1565b9150611b0b82611aa4565b604082019050919050565b60006020820190508181036000830152611b2f81611af3565b9050919050565b7f45524332303a20696e73756666696369656e7420616c6c6f77616e6365000000600082015250565b6000611b6c601d836113d1565b9150611b7782611b36565b602082019050919050565b60006020820190508181036000830152611b9b81611b5f565b9050919050565b7f45524332303a207472616e736665722066726f6d20746865207a65726f20616460008201527f6472657373000000000000000000000000000000000000000000000000000000602082015250565b6000611bfe6025836113d1565b9150611c0982611ba2565b604082019050919050565b60006020820190508181036000830152611c2d81611bf1565b9050919050565b7f45524332303a207472616e7366657220746f20746865207a65726f206164647260008201527f6573730000000000000000000000000000000000000000000000000000000000602082015250565b6000611c906023836113d1565b9150611c9b82611c34565b604082019050919050565b60006020820190508181036000830152611cbf81611c83565b9050919050565b7f45524332303a207472616e7366657220616d6f756e742065786365656473206260008201527f616c616e63650000000000000000000000000000000000000000000000000000602082015250565b6000611d226026836113d1565b9150611d2d82611cc6565b604082019050919050565b60006020820190508181036000830152611d5181611d15565b9050919050565b7f45524332303a206d696e7420746f20746865207a65726f206164647265737300600082015250565b6000611d8e601f836113d1565b9150611d9982611d58565b602082019050919050565b60006020820190508181036000830152611dbd81611d81565b9050919050565b7f45524332303a206275726e2066726f6d20746865207a65726f2061646472657360008201527f7300000000000000000000000000000000000000000000000000000000000000602082015250565b6000611e206021836113d1565b9150611e2b82611dc4565b604082019050919050565b60006020820190508181036000830152611e4f81611e13565b9050919050565b7f45524332303a206275726e20616d6f756e7420657863656564732062616c616e60008201527f6365000000000000000000000000000000000000000000000000000000000000602082015250565b6000611eb26022836113d1565b9150611ebd82611e56565b604082019050919050565b60006020820190508181036000830152611ee181611ea5565b9050919050565b6000611ef3826114b2565b9150611efe836114b2565b925082821015611f1157611f1061170d565b5b828203905092915050565b7f496e697469616c697a61626c653a20636f6e7472616374206973206e6f74206960008201527f6e697469616c697a696e67000000000000000000000000000000000000000000602082015250565b6000611f78602b836113d1565b9150611f8382611f1c565b604082019050919050565b60006020820190508181036000830152611fa781611f6b565b905091905056fea26469706673582212203ed6e3e106e2fc0c133360c206860bd5a317412dd060c1646f4755e836c138dc64736f6c63430008090033",
    "linkReferences": {},
    "deployedLinkReferences": {}
}