{
    "_format": "hh-sol-artifact-1",
    "contractName": "AliceNetFactory",
    "sourceName": "contracts/AliceNetFactory.sol",
    "abi": [
        {
            "inputs": [
                {
                    "internalType": "address",
                    "name": "selfAddr_",
                    "type": "address"
                }
            ],
            "stateMutability": "nonpayable",
            "type": "constructor"
        },
        {
            "inputs": [],
            "name": "CodeSizeZero",
            "type": "error"
        },
        {
            "inputs": [],
            "name": "Unauthorized",
            "type": "error"
        },
        {
            "anonymous": false,
            "inputs": [
                {
                    "indexed": false,
                    "internalType": "bytes32",
                    "name": "salt",
                    "type": "bytes32"
                },
                {
                    "indexed": false,
                    "internalType": "address",
                    "name": "contractAddr",
                    "type": "address"
                }
            ],
            "name": "Deployed",
            "type": "event"
        },
        {
            "anonymous": false,
            "inputs": [
                {
                    "indexed": false,
                    "internalType": "address",
                    "name": "contractAddr",
                    "type": "address"
                }
            ],
            "name": "DeployedProxy",
            "type": "event"
        },
        {
            "anonymous": false,
            "inputs": [
                {
                    "indexed": false,
                    "internalType": "address",
                    "name": "contractAddr",
                    "type": "address"
                }
            ],
            "name": "DeployedRaw",
            "type": "event"
        },
        {
            "anonymous": false,
            "inputs": [
                {
                    "indexed": false,
                    "internalType": "address",
                    "name": "contractAddr",
                    "type": "address"
                }
            ],
            "name": "DeployedStatic",
            "type": "event"
        },
        {
            "anonymous": false,
            "inputs": [
                {
                    "indexed": false,
                    "internalType": "address",
                    "name": "contractAddr",
                    "type": "address"
                }
            ],
            "name": "DeployedTemplate",
            "type": "event"
        },
        {
            "stateMutability": "nonpayable",
            "type": "fallback"
        },
        {
            "inputs": [
                {
                    "internalType": "address",
                    "name": "target_",
                    "type": "address"
                },
                {
                    "internalType": "uint256",
                    "name": "value_",
                    "type": "uint256"
                },
                {
                    "internalType": "bytes",
                    "name": "cdata_",
                    "type": "bytes"
                }
            ],
            "name": "callAny",
            "outputs": [],
            "stateMutability": "payable",
            "type": "function"
        },
        {
            "inputs": [],
            "name": "contracts",
            "outputs": [
                {
                    "internalType": "bytes32[]",
                    "name": "contracts_",
                    "type": "bytes32[]"
                }
            ],
            "stateMutability": "view",
            "type": "function"
        },
        {
            "inputs": [
                {
                    "internalType": "address",
                    "name": "target_",
                    "type": "address"
                },
                {
                    "internalType": "bytes",
                    "name": "cdata_",
                    "type": "bytes"
                }
            ],
            "name": "delegateCallAny",
            "outputs": [],
            "stateMutability": "payable",
            "type": "function"
        },
        {
            "inputs": [],
            "name": "delegator",
            "outputs": [
                {
                    "internalType": "address",
                    "name": "delegator_",
                    "type": "address"
                }
            ],
            "stateMutability": "view",
            "type": "function"
        },
        {
            "inputs": [
                {
                    "internalType": "bytes",
                    "name": "deployCode_",
                    "type": "bytes"
                }
            ],
            "name": "deployCreate",
            "outputs": [
                {
                    "internalType": "address",
                    "name": "contractAddr",
                    "type": "address"
                }
            ],
            "stateMutability": "nonpayable",
            "type": "function"
        },
        {
            "inputs": [
                {
                    "internalType": "uint256",
                    "name": "value_",
                    "type": "uint256"
                },
                {
                    "internalType": "bytes32",
                    "name": "salt_",
                    "type": "bytes32"
                },
                {
                    "internalType": "bytes",
                    "name": "deployCode_",
                    "type": "bytes"
                }
            ],
            "name": "deployCreate2",
            "outputs": [
                {
                    "internalType": "address",
                    "name": "contractAddr",
                    "type": "address"
                }
            ],
            "stateMutability": "payable",
            "type": "function"
        },
        {
            "inputs": [
                {
                    "internalType": "bytes32",
                    "name": "salt_",
                    "type": "bytes32"
                }
            ],
            "name": "deployProxy",
            "outputs": [
                {
                    "internalType": "address",
                    "name": "contractAddr",
                    "type": "address"
                }
            ],
            "stateMutability": "nonpayable",
            "type": "function"
        },
        {
            "inputs": [
                {
                    "internalType": "bytes32",
                    "name": "salt_",
                    "type": "bytes32"
                },
                {
                    "internalType": "bytes",
                    "name": "initCallData_",
                    "type": "bytes"
                }
            ],
            "name": "deployStatic",
            "outputs": [
                {
                    "internalType": "address",
                    "name": "contractAddr",
                    "type": "address"
                }
            ],
            "stateMutability": "nonpayable",
            "type": "function"
        },
        {
            "inputs": [
                {
                    "internalType": "bytes",
                    "name": "deployCode_",
                    "type": "bytes"
                }
            ],
            "name": "deployTemplate",
            "outputs": [
                {
                    "internalType": "address",
                    "name": "contractAddr",
                    "type": "address"
                }
            ],
            "stateMutability": "nonpayable",
            "type": "function"
        },
        {
            "inputs": [],
            "name": "getImplementation",
            "outputs": [
                {
                    "internalType": "address",
                    "name": "",
                    "type": "address"
                }
            ],
            "stateMutability": "view",
            "type": "function"
        },
        {
            "inputs": [
                {
                    "internalType": "bytes32",
                    "name": "_salt",
                    "type": "bytes32"
                },
                {
                    "internalType": "address",
                    "name": "_factory",
                    "type": "address"
                }
            ],
            "name": "getMetamorphicContractAddress",
            "outputs": [
                {
                    "internalType": "address",
                    "name": "",
                    "type": "address"
                }
            ],
            "stateMutability": "pure",
            "type": "function"
        },
        {
            "inputs": [],
            "name": "getNumContracts",
            "outputs": [
                {
                    "internalType": "uint256",
                    "name": "",
                    "type": "uint256"
                }
            ],
            "stateMutability": "view",
            "type": "function"
        },
        {
            "inputs": [
                {
                    "internalType": "address",
                    "name": "contract_",
                    "type": "address"
                },
                {
                    "internalType": "bytes",
                    "name": "initCallData_",
                    "type": "bytes"
                }
            ],
            "name": "initializeContract",
            "outputs": [],
            "stateMutability": "nonpayable",
            "type": "function"
        },
        {
            "inputs": [
                {
                    "internalType": "bytes32",
                    "name": "salt_",
                    "type": "bytes32"
                }
            ],
            "name": "lookup",
            "outputs": [
                {
                    "internalType": "address",
                    "name": "addr",
                    "type": "address"
                }
            ],
            "stateMutability": "view",
            "type": "function"
        },
        {
            "inputs": [
                {
                    "internalType": "bytes[]",
                    "name": "cdata_",
                    "type": "bytes[]"
                }
            ],
            "name": "multiCall",
            "outputs": [],
            "stateMutability": "nonpayable",
            "type": "function"
        },
        {
            "inputs": [],
            "name": "owner",
            "outputs": [
                {
                    "internalType": "address",
                    "name": "owner_",
                    "type": "address"
                }
            ],
            "stateMutability": "view",
            "type": "function"
        },
        {
            "inputs": [
                {
                    "internalType": "address",
                    "name": "newDelegator_",
                    "type": "address"
                }
            ],
            "name": "setDelegator",
            "outputs": [],
            "stateMutability": "nonpayable",
            "type": "function"
        },
        {
            "inputs": [
                {
                    "internalType": "address",
                    "name": "newImplementationAddress_",
                    "type": "address"
                }
            ],
            "name": "setImplementation",
            "outputs": [],
            "stateMutability": "nonpayable",
            "type": "function"
        },
        {
            "inputs": [
                {
                    "internalType": "address",
                    "name": "newOwner_",
                    "type": "address"
                }
            ],
            "name": "setOwner",
            "outputs": [],
            "stateMutability": "nonpayable",
            "type": "function"
        },
        {
            "inputs": [
                {
                    "internalType": "bytes32",
                    "name": "salt_",
                    "type": "bytes32"
                },
                {
                    "internalType": "address",
                    "name": "newImpl_",
                    "type": "address"
                },
                {
                    "internalType": "bytes",
                    "name": "initCallData_",
                    "type": "bytes"
                }
            ],
            "name": "upgradeProxy",
            "outputs": [],
            "stateMutability": "nonpayable",
            "type": "function"
        }
    ],
    "bytecode": "0x60a06040523480156200001157600080fd5b5060405162001a5838038062001a588339810160408190526200003491620000e8565b8060006738585839386009f360c01b604051806020016200005590620000da565b601f1982820381018352601f909101166040819052620000859291906001600160a01b038616906020016200011a565b604051602081830303815290604052905060008151602083016000f0905080620000b3573d6000803e3d6000fd5b6001600160a01b03166080525050600080546001600160a01b031916331790555062000176565b6101f6806200186283390190565b600060208284031215620000fb57600080fd5b81516001600160a01b03811681146200011357600080fd5b9392505050565b6001600160c01b0319841681528251600090815b818110156200014d57602081870181015160088684010152016200012e565b8181111562000160576000600883860101525b5060089201918201929092526028019392505050565b6080516116d0620001926000396000610e4701526116d06000f3fe60806040526004361061015f5760003560e01c806383cd9cc3116100c0578063cfe10b3011610074578063e1d7a8e411610059578063e1d7a8e41461047f578063f39ec1f71461049f578063fa481da5146104bf5761015f565b8063cfe10b3014610441578063d784d4261461045f5761015f565b80638da5cb5b116100a55780638da5cb5b146103c0578063aaf10f42146103eb578063ce9b7930146104165761015f565b806383cd9cc3146102bd5780638653a465146102dd5761015f565b8063348a0cdc116101175780634713ee7a116100fc5780634713ee7a1461027557806356f2a761146102885780636c0f79b61461029b5761015f565b8063348a0cdc1461023557806339cab472146102555761015f565b806313af40351161014857806313af4035146101ab57806317cff2c5146101cb57806327fe1822146102155761015f565b8063043c94141461017657806312e6bf6a14610198575b34801561016b57600080fd5b506003543d5260203df35b34801561018257600080fd5b50610196610191366004611297565b6104df565b005b6101966101a63660046112f3565b61054b565b3480156101b757600080fd5b506101966101c6366004611337565b6105cd565b3480156101d757600080fd5b506101eb6101e6366004611354565b61063e565b60405173ffffffffffffffffffffffffffffffffffffffff90911681526020015b60405180910390f35b34801561022157600080fd5b506101eb610230366004611354565b61067b565b34801561024157600080fd5b50610196610250366004611396565b6106b1565b34801561026157600080fd5b506101eb61027036600461140b565b6106e9565b610196610283366004611424565b610724565b6101eb610296366004611479565b6107ed565b3480156102a757600080fd5b506102b061082e565b60405161020c91906114b4565b3480156102c957600080fd5b506101966102d8366004611337565b610886565b3480156102e957600080fd5b506101eb6102f83660046114f8565b6040517fff0000000000000000000000000000000000000000000000000000000000000060208201527fffffffffffffffffffffffffffffffffffffffff000000000000000000000000606083901b166021820152603581018390527f1c0bf703a3415cada9785e89e9d70314c3111ae7d8e04f33bb42eb1d264088be60558201819052600091607501604080517fffffffffffffffffffffffffffffffffffffffffffffffffffffffffffffffe08184030181529190528051602090910120949350505050565b3480156103cc57600080fd5b5060005473ffffffffffffffffffffffffffffffffffffffff166101eb565b3480156103f757600080fd5b5060035473ffffffffffffffffffffffffffffffffffffffff166101eb565b34801561042257600080fd5b5060015473ffffffffffffffffffffffffffffffffffffffff166101eb565b34801561044d57600080fd5b5060025460405190815260200161020c565b34801561046b57600080fd5b5061019661047a366004611337565b6108f7565b34801561048b57600080fd5b5061019661049a366004611424565b610968565b3480156104ab57600080fd5b506101eb6104ba36600461140b565b6109a2565b3480156104cb57600080fd5b506101eb6104da366004611528565b610a4b565b61053933301480610534575060005473ffffffffffffffffffffffffffffffffffffffff165b73ffffffffffffffffffffffffffffffffffffffff163373ffffffffffffffffffffffffffffffffffffffff16145b610a8a565b61054584848484610ac4565b50505050565b61057533301480610534575060005473ffffffffffffffffffffffffffffffffffffffff16610505565b600082828080601f0160208091040260200160405190810160405280939291908181526020018383808284376000920191909152509293506105be925087915086905083610c23565b6105c6610c40565b5050505050565b6105f733301480610534575060005473ffffffffffffffffffffffffffffffffffffffff16610505565b600080547fffffffffffffffffffffffff00000000000000000000000000000000000000001673ffffffffffffffffffffffffffffffffffffffff92909216919091179055565b600061066a33301480610534575060005473ffffffffffffffffffffffffffffffffffffffff16610505565b6106748383610c4a565b9392505050565b60006106a733301480610534575060005473ffffffffffffffffffffffffffffffffffffffff16610505565b6106748383610d40565b6106db33301480610534575060005473ffffffffffffffffffffffffffffffffffffffff16610505565b6106e58282610db1565b5050565b600061071533301480610534575060005473ffffffffffffffffffffffffffffffffffffffff16610505565b61071e82610e42565b92915050565b61079d33301480610779575060005473ffffffffffffffffffffffffffffffffffffffff165b73ffffffffffffffffffffffffffffffffffffffff163373ffffffffffffffffffffffffffffffffffffffff16145b80610534575060015473ffffffffffffffffffffffffffffffffffffffff16610505565b600082828080601f0160208091040260200160405190810160405280939291908181526020018383808284376000920191909152509293506107e59250869150839050610f2c565b610545610c40565b600061081933301480610534575060005473ffffffffffffffffffffffffffffffffffffffff16610505565b61082585858585610f48565b95945050505050565b6060600280548060200260200160405190810160405280929190818152602001828054801561087c57602002820191906000526020600020905b815481526020019060010190808311610868575b5050505050905090565b6108b033301480610534575060005473ffffffffffffffffffffffffffffffffffffffff16610505565b600180547fffffffffffffffffffffffff00000000000000000000000000000000000000001673ffffffffffffffffffffffffffffffffffffffff92909216919091179055565b61092133301480610779575060005473ffffffffffffffffffffffffffffffffffffffff1661074a565b600380547fffffffffffffffffffffffff00000000000000000000000000000000000000001673ffffffffffffffffffffffffffffffffffffffff92909216919091179055565b61099233301480610779575060005473ffffffffffffffffffffffffffffffffffffffff1661074a565b61099d838383611008565b505050565b604080517fff000000000000000000000000000000000000000000000000000000000000006020808301919091523060601b7fffffffffffffffffffffffffffffffffffffffff000000000000000000000000166021830152603582018490527f1c0bf703a3415cada9785e89e9d70314c3111ae7d8e04f33bb42eb1d264088be605580840191909152835180840390910181526075909201909252805191012060009061071e565b6000610a7733301480610534575060005473ffffffffffffffffffffffffffffffffffffffff16610505565b610a8284848461103d565b949350505050565b80610ac1576040517f82b4290000000000000000000000000000000000000000000000000000000000815260040160405180910390fd5b50565b604080517fff000000000000000000000000000000000000000000000000000000000000006020808301919091523060601b7fffffffffffffffffffffffffffffffffffffffff000000000000000000000000166021830152603582018790527f1c0bf703a3415cada9785e89e9d70314c3111ae7d8e04f33bb42eb1d264088be6055808401919091528351808403909101815260759092019092528051910120610b6f8185611155565b8373ffffffffffffffffffffffffffffffffffffffff168173ffffffffffffffffffffffffffffffffffffffff16630cbcae706040518163ffffffff1660e01b8152600401602060405180830381865afa158015610bd1573d6000803e3d6000fd5b505050506040513d601f19601f82011682018060405250810190610bf5919061155b565b73ffffffffffffffffffffffffffffffffffffffff1614610c1857610c18611578565b6105c6818484611008565b805181602001600080838387895af16105c6573d6000803e3d6000fd5b3d6000803e3d6000f35b6000604051602883018101604052807f38585839386009f30000000000000000000000000000000000000000000000008152600881019050838582378381019050308152602081019050818103826000f092505050610cb1610caa823b90565b15156111f5565b60405173ffffffffffffffffffffffffffffffffffffffff821681527f6cd94ea1c5d9f99038bb4629d8a759399654d3861b73bf3a2b0cf484dae721389060200160405180910390a1600380547fffffffffffffffffffffffff00000000000000000000000000000000000000001673ffffffffffffffffffffffffffffffffffffffff831617905592915050565b600060405180838582378301818103826000f092505050610d62610caa823b90565b60405173ffffffffffffffffffffffffffffffffffffffff821681527fd3acf0da590cfcd8f020afd7f40b7e6e4c8bd2fc9eb7aec9836837b667685b3a9060200160405180910390a192915050565b60005b81811015610e39576000838383818110610dd057610dd06115a7565b9050602002810190610de291906115d6565b8080601f0160208091040260200160405190810160405280939291908181526020018383808284376000920182905250939450610e26933093509150849050610c23565b5080610e318161163b565b915050610db4565b506106e5610c40565b6000807f000000000000000000000000000000000000000000000000000000000000000090508060035560405160208101604052766020363636335afa1536363636515af43d36363e3d36f360481b8152836017826000f5925050610ea8610caa833b90565b600280546001810182556000919091527f405787fa12a823e0f2b7631cc41b3ba8828b3321ca811111fa75cd3aa3bb5ace0183905560405173ffffffffffffffffffffffffffffffffffffffff831681527f06690e5b52be10a3d5820ec875c3dd3327f3077954a09f104201e40e5f7082c69060200160405180910390a150919050565b8051816020016000808383875af4610545573d6000803e3d6000fd5b600060405180838582378301858282038389f592505050610f828173ffffffffffffffffffffffffffffffffffffffff16600014156111f5565b600280546001810182556000919091527f405787fa12a823e0f2b7631cc41b3ba8828b3321ca811111fa75cd3aa3bb5ace0184905560405173ffffffffffffffffffffffffffffffffffffffff821681527fd3acf0da590cfcd8f020afd7f40b7e6e4c8bd2fc9eb7aec9836837b667685b3a9060200160405180910390a1949350505050565b801561099d576040518082016040528183823760008083836000885af1610545576040519050803d016040523d6000823e3d81fd5b600060405160208101604052766020363636335afa1536363636515af43d36363e3d36f360481b8152846017826000f59150503d15611080573d6000803e3d6000fd5b803b15811517156110b5577f537461746963206465706c6f79206661696c656400000000000000000000000060005260206000fd5b81156110c6576110c6818484611008565b6110d0813b610caa565b600280546001810182556000919091527f405787fa12a823e0f2b7631cc41b3ba8828b3321ca811111fa75cd3aa3bb5ace0184905560405173ffffffffffffffffffffffffffffffffffffffff821681527fe8b9cb7d60827a7d55e211f1382dd0f129adb541af9fe45a09ab4a18b76e7c659060200160405180910390a19392505050565b6040805173ffffffffffffffffffffffffffffffffffffffff83166024808301919091528251808303909101815260449091019091526020810180517bffffffffffffffffffffffffffffffffffffffffffffffffffffffff167fca11c0de00000000000000000000000000000000000000000000000000000000178152815160009182919082875af161099d576040513d81016040523d6000823e3d81fd5b80610ac1576040517f5e393b2600000000000000000000000000000000000000000000000000000000815260040160405180910390fd5b73ffffffffffffffffffffffffffffffffffffffff81168114610ac157600080fd5b60008083601f84011261126057600080fd5b50813567ffffffffffffffff81111561127857600080fd5b60208301915083602082850101111561129057600080fd5b9250929050565b600080600080606085870312156112ad57600080fd5b8435935060208501356112bf8161122c565b9250604085013567ffffffffffffffff8111156112db57600080fd5b6112e78782880161124e565b95989497509550505050565b6000806000806060858703121561130957600080fd5b84356113148161122c565b935060208501359250604085013567ffffffffffffffff8111156112db57600080fd5b60006020828403121561134957600080fd5b81356106748161122c565b6000806020838503121561136757600080fd5b823567ffffffffffffffff81111561137e57600080fd5b61138a8582860161124e565b90969095509350505050565b600080602083850312156113a957600080fd5b823567ffffffffffffffff808211156113c157600080fd5b818501915085601f8301126113d557600080fd5b8135818111156113e457600080fd5b8660208260051b85010111156113f957600080fd5b60209290920196919550909350505050565b60006020828403121561141d57600080fd5b5035919050565b60008060006040848603121561143957600080fd5b83356114448161122c565b9250602084013567ffffffffffffffff81111561146057600080fd5b61146c8682870161124e565b9497909650939450505050565b6000806000806060858703121561148f57600080fd5b8435935060208501359250604085013567ffffffffffffffff8111156112db57600080fd5b6020808252825182820181905260009190848201906040850190845b818110156114ec578351835292840192918401916001016114d0565b50909695505050505050565b6000806040838503121561150b57600080fd5b82359150602083013561151d8161122c565b809150509250929050565b60008060006040848603121561153d57600080fd5b83359250602084013567ffffffffffffffff81111561146057600080fd5b60006020828403121561156d57600080fd5b81516106748161122c565b7f4e487b7100000000000000000000000000000000000000000000000000000000600052600160045260246000fd5b7f4e487b7100000000000000000000000000000000000000000000000000000000600052603260045260246000fd5b60008083357fffffffffffffffffffffffffffffffffffffffffffffffffffffffffffffffe184360301811261160b57600080fd5b83018035915067ffffffffffffffff82111561162657600080fd5b60200191503681900382131561129057600080fd5b60007fffffffffffffffffffffffffffffffffffffffffffffffffffffffffffffffff8203611693577f4e487b7100000000000000000000000000000000000000000000000000000000600052601160045260246000fd5b506001019056fea26469706673582212209a44fd2ea7515175967e2d80699f225857805be73d3551e7d70f81d54281dddf64736f6c634300080f003360a060405234801561001057600080fd5b50336080526080516101c761002f6000396000607901526101c76000f3fe6080604052600436106100225760003560e01c80630cbcae701461003957610031565b366100315761002f610077565b005b61002f610077565b34801561004557600080fd5b5061004e61014e565b60405173ffffffffffffffffffffffffffffffffffffffff909116815260200160405180910390f35b7f000000000000000000000000000000000000000000000000000000000000000061011c565b60043560601b60601c6bca11c0de15dead10cced00006000195460a01c036100e9577f696d706c6f63000000000000000000000000000000000000000000000000000060005260206000fd5b8060001955005b60405136810160405236600082376000803683600019545af43d6000833e80610117573d82fd5b503d81f35b80330361014357602436036101435763ca11c0de60003560e01c036101435761014361009d565b61014b6100f0565b50565b600073ffffffffffffffffffffffffffffffffffffffff7fffffffffffffffffffffffffffffffffffffffffffffffffffffffffffffffff541660005260206000f3fea26469706673582212205fd32fa68173695e5421ecf5d90669233b3058d0814b0d307b43a1dfd324b6bb64736f6c634300080f0033",
    "linkReferences": {},
    "deployedLinkReferences": {}
}